:100000000C9422050C94F31A0C9469050C94690560
:100010000C9469050C9469050C9469050C946905A8
:100020000C9469050C9469050C942F2F0C940230E4
:100030000C9489290C9469050C9469050C94690544
:100040000C9469050C9469050C9469050C94690578
:100050000C9469050C94D4290C9469050C946905D9
:100060000C9469050C9469050C9469050C94690558
:100070000C9469050C9469050C9469050C94690548
:100080000C9469050C9469050C9469050C94690538
:100090000C9469050C9469050C9469050C94690528
:1000A0000C9469050C9469050C94690529001E00DF
:1000B0001F002000210022002B0014001A0008005D
:1000C00015001700E10004001600070009000A00EF
:1000D000E0001D001B0006001900050000000000E4
:1000E0003500E0002D0001512A00270026002500E0
:1000F000240023002800130012000C0018001C002C
:10010000340033000F000E000D000B0031003800EA
:100110003700360010001100000000002E00E6003D
:100120002C00025144003A003B003C003D003E00E0
:10013000450000005200000000002F0200005000A7
:1001400051004F0000002F0046000000000000009A
:10015000000036020000000026020000000000003F
:100160004C0043004200410040003F004A004B0069
:1001700026002500240030024D004E0023002200FE
:10018000210030000000270020001F001E00370261
:1001900000000000270200000000010044003A00B7
:1001A0003B003C003D003E00C55CC75CC95CA9004B
:1001B00000000000C65CC85CCA5CAA0000002D02FA
:1001C000C25CC35C000000000000000000000000F2
:1001D00000000000000001004C004300420041000C
:1001E00040003F0000004D004A00000004011A01D9
:1001F000000000004F0052005100500000004E006F
:100200004B000000000000000000000000000000A3
:1002100000000000010001000100010001000100D8
:1002200001000100010001000100010001000100C6
:1002300001000100010001000100010001000100B6
:1002400001000100000000000100010001000100A8
:100250000100010001000100010001000100010096
:100260000100010001000100010001000100010086
:100270000100010001000100010001000100010076
:10028000000000000100010001000100444542554A
:10029000473A2064697361626C65642E0A004445C4
:1002A0004255473A20656E61626C65642E0A000A09
:1002B0000025303862003A200025303258000A729A
:1002C0002F632030313233343536370A007267629B
:1002D0006C6967687420616E696D6174696F6E2006
:1002E0007469636B207265706F727420746F207311
:1002F0006C6176650A007267626C69676874207465
:10030000696D65722064697361626C652E0A0072A2
:1003100067626C696768742074696D657220656EC8
:1003200061626C65642E0A007267626C696768744A
:100330002073657420687376205B4E4F454550529C
:100340004F4D5D3A2025752C25752C25750A0072B8
:1003500067626C69676874207365742068737620BF
:100360005B454550524F4D5D3A2025752C25752C27
:1003700025750A007267626C69676874207261692A
:100380006E626F7720736574206873763A202564F7
:100390002C25642C25642C25750A007267626C6913
:1003A0006768742064697361626C65205B4E4F45B9
:1003B0004550524F4D5D3A207267626C69676874B0
:1003C0005F636F6E6669672E656E61626C65203D66
:1003D0002025750A007267626C6967687420646919
:1003E0007361626C65205B454550524F4D5D3A200C
:1003F0007267626C696768745F636F6E6669672EA7
:10040000656E61626C65203D2025750A0072676229
:100410006C6967687420656E61626C65205B454538
:1004200050524F4D5D3A207267626C696768745F25
:10043000636F6E6669672E656E61626C65203D2034
:1004400025750A007267626C6967687420746F674B
:10045000676C65205B454550524F4D5D3A20726791
:10046000626C696768745F636F6E6669672E656E3C
:1004700061626C65203D2025750A007267626C69B7
:10048000676874206D6F6465205B4E4F4545505220
:100490004F4D5D3A2025750A007267626C69676886
:1004A00074206D6F6465205B454550524F4D5D3A39
:1004B0002025750A007267626C696768745F696EEF
:1004C0006974207267626C696768745F636F6E66D7
:1004D00069672E6D6F6465203D20302E205772694C
:1004E00074652064656661756C742076616C7565F1
:1004F0007320746F20454550524F4D2E0A0072678D
:10050000626C696768745F696E6974206565636FA2
:100510006E666967206973206E6F7420656E616214
:100520006C65642E0A007267626C696768745F6943
:100530006E6974207374617274210A007267626C50
:10054000696768745F696E69742063616C6C656467
:100550002E0A007267626C696768745F636F6E660B
:1005600069672E7370656564203D2025640A0072FA
:1005700067626C696768745F636F6E6669672E7621
:10058000616C203D2025640A007267626C696768AF
:10059000745F636F6E6669672E736174203D2025FA
:1005A000640A007267626C696768745F636F6E6685
:1005B00069672E687565203D2025640A00726768AA
:1005C0006C696768745F636F6E6669672E6D6F64D0
:1005D00065203D2025640A007267626C6967687453
:1005E0005F636F6E6669672E656E61626C65203D44
:1005F0002025640A007267626C696768745F636FC4
:100600006E66696720454550524F4D3A0A00000416
:100610007F3F1F643214643214783C1E1E140A0596
:100620002223252628292A2C2D2F303233353638FF
:100630003A3B3D3E4042434547494A4C4E50515358
:100640005557595A5C5E6062646668696B6D6F717C
:10065000737577797B7D7F81838587898A8C8E907E
:10066000929496989A9C9E9FA1A3A5A7A8AAACAE87
:10067000AFB1B3B4B6B8B9BBBCBEBFC1C2C3C5C6C7
:10068000C7C9CACBCCCDCED0D1D2D2D3D4D5D6D770
:10069000D7D8D9D9DADADBDBDBDCDCDCDCDCDDDDAE
:1006A000DDDDDCDCDCDCDCDBDBDBDADAD9D9D8D79E
:1006B000D7D6D5D4D3D2D2D1D0CECDCCCBCAC9C740
:1006C000C6C5C3C2C1BFBEBCBBB9B8B6B4B3B1AF77
:1006D000AEACAAA8A7A5A3A19F9E9C9A9896949217
:1006E000908E8C8A89878583817F7D7B79777573EE
:1006F000716F6D6B6968666462605E5C5A595755CC
:100700005351504E4C4A4947454342403E3D3B3A87
:100710003836353332302F2D2C2A2928262523220E
:10072000FFAA7F55406261636B6C696768742073D0
:100730007465703A2025750A006261636B6C6967A5
:1007400068742064697361626C650A006261636B3E
:100750006C6967687420656E61626C650A0062612D
:10076000636B6C6967687420746F67676C653A20A7
:1007700025750A006261636B6C6967687420646543
:100780006372656173653A2025750A006261636B67
:100790006C6967687420696E6372656173653A207D
:1007A00025750A0000010101010101010101020298
:1007B000020202020202020303030303030303040F
:1007C00004040404040405050505050606060606DA
:1007D000070707070708080808090909090A0A0A94
:1007E0000B0B0B0C0C0C0D0D0D0E0E0E0F0F0F1036
:1007F00010111111121213131414151516161717C0
:10080000181819191A1A1B1B1C1D1D1E1E1F20202B
:10081000212222232424252626272829292A2B2C75
:100820002D2D2E2F30313232333435363738393A98
:100830003B3C3D3E3F404142434445464748494A90
:100840004C4D4E4F50515354555658595A5B5D5E5E
:100850005F616264656668696B6C6D6F70727375F9
:1008600077787A7B7D7E8082838587888A8C8E8F5D
:1008700091939596989A9C9EA0A2A3A5A7A9ABAD8B
:10088000AFB1B3B5B7BABCBEC0C2C4C6C9CBCDCF79
:10089000D1D4D6D8DBDDDFE2E4E7E9EBEEF0F3F527
:1008A000F8FAFDFF0A002530325820006B657962A6
:1008B0006F6172645F7265706F72743A20000A0033
:1008C00025303258006B6579626F6172645F7365C1
:1008D000745F6C65643A20005B735D004B65796200
:1008E0006F6172642073746172742E0A005B575DCD
:1008F000005B535D005B525D005B445D005B435DEC
:100900000004033000000026034B00650065006210
:100910000069006F00200049007200690073002028
:10092000005200650076002E002000330000000E0B
:10093000034B0065006500620069006F0000000461
:1009400003090409025B00030100A0FA0904000086
:1009500001030101000921110100012240000705E6
:10096000810308000A0904010001030000000921B5
:10097000110100012232000705820320000A090448
:1009800002000203000000092111010001222200DF
:10099000070583032000010705030320000112015E
:1009A00010010000000810CB5612000301020301E1
:1009B0000631FF0974A1010975150026FF00952075
:1009C000750881020976150026FF009520750891AB
:1009D00002C005010980A101850319012AB700158C
:1009E0000126B700950175108100C0050C0901A111
:1009F00001850419012AA002150126A0029501759E
:100A0000108100C005010906A101050719E029E7C9
:100A10001500250195087501810295017508810170
:100A20000507190029FF150026FF009506750881A6
:100A300000050819012905950575019102950175B3
:100A4000039101C011241FBECFEFDAE0DEBFCDBF9E
:100A500004B603FE27C08091FF0290910003A0918D
:100A60000103B09102038730904BA740B04BD1F403
:100A70001092FF02109200031092010310920203E1
:100A800014BE84B7877F84BF0FB6F894A895809171
:100A90006000886180936000109260000FBEE0E00B
:100AA000F8E3099511E0A0E0B1E0E0EDF5E602C061
:100AB00005900D92A03EB107D9F722E0A0EEB1E07B
:100AC00001C01D92AF3FB207E1F70E945A2C0C946F
:100AD0009C320C940000FF93EF93E091E001F091C1
:100AE000E101309709F00995EF91FF910895FC011C
:100AF0008591803011F0EFDFFBCF0895FF27E0E212
:100B000030E247FF0CC0419597FF09C0EDE26095C8
:100B1000709580959095611D711D811D911D27FF18
:100B200002C0219530E350E2AA27660F771F881F85
:100B3000991FAA1FA41710F0A41B63955A95A9F733
:100B4000AA3008F0A95FA05DAF93F3956115710518
:100B50008105910541F7ED3211F4EF93F395F2170A
:100B600018F43F93F395FBCF8F91B5DFFA95E1F73A
:100B70000895E991F9918591803021F0853219F03D
:100B8000AADFF9CF089520E0E89455915532C1F3DA
:100B9000503311F4689455915A3348F4505390F3FC
:100BA000220F022E220F220F200D250FF4CF0EF45C
:100BB000219589919991533619F3533729F153357A
:100BC00059F1BC0188279927E8945C3621F4899172
:100BD000999168945591543639F446EF7EF077FF39
:100BE0000DC08FEF9FEF0AC055374AE039F05835F6
:100BF00040E121F0523642E009F00895FF93EF936F
:100C00007DDFEF91FF91B7CFFF93EF93FC018191CF
:100C10008030B9F360DFFBCFFF93EF9368DFF1CF54
:100C2000DF93CF93CDB7DEB72596A3DFCF91DF91CA
:100C300008950E94351683E00E94E5160E940D1368
:100C40004FEF6FEF80E00E94401084E00E940A1393
:100C500060E070E0CB010E9469280C947528CF9366
:100C60009C01FB012A308DE5380751F158F42830FA
:100C70008DE5380789F029303D45B1F0C1E08C2F72
:100C8000CF9108952B303D45C9F7C28183E0CC2335
:100C900011F10E945C2506C0C281CC2381F380E063
:100CA0000E94D406C0E0EBCFC28181E0CC2359F092
:100CB0000E945C2543E062E081E00E946707F2CF7A
:100CC000C28182E0F3CF0E948D2543E062E081E0A3
:100CD0000E946707D4CF0E948D25D1CF80918702D3
:100CE00082FF06C080E5611101C08FE40C94711E83
:100CF00081FF05C08DEB6111F9CF8EEBF7CF8EE44C
:100D00006111F4CF8BE4F2CF81E008950C942F06AB
:100D100008950C9488061F93CF93DF9300D000D0E2
:100D20000F92CDB7DEB749835A836B833091260289
:100D300089819A8131111DC06623B9F02223A9F05F
:100D40000E94C526182F682F89819A810E946C26DF
:100D500069817A81812F0F900F900F900F900F90E3
:100D6000DF91CF911F910C941D080E949B26182F94
:100D7000EFCF0E94C52669817A81EDCFFC01262F35
:100D8000408151816281738184810C948B06CF9361
:100D9000DF93D82FC92F60E00E94BE066D2F7C2FF5
:100DA000DF91CF910C948906CF93DF9300D000D0D0
:100DB000CDB7DEB721E030E002C0220F331F8A95A5
:100DC000E2F73A83298389810E944028A981BA8168
:100DD000CD01B0E0A0E089839A83AB83BC83BC01E2
:100DE000CD010F900F900F900F90DF91CF910C9449
:100DF000A8248F929F92AF92BF92CF92DF92EF92F0
:100E0000FF920F931F93CF93DF9300D000D0CDB705
:100E1000DEB76B017C0181E090E0A0E0B0E04C0126
:100E20005D0104C0880C991CAA1CBB1C4A95D2F712
:100E3000B501A4014C015D0104C0880C991CAA1CD9
:100E4000BB1C2A95D2F7482959296A297B2904C055
:100E5000880F991FAA1FBB1F0A95D2F78A019B0111
:100E60000C211D212E213F210417150726073707C6
:100E7000F9F49C01AD012C293D294E295F292983D4
:100E80003A834B835C8369817A818B819C810F904B
:100E90000F900F900F90DF91CF911F910F91FF90C6
:100EA000EF90DF90CF90BF90AF909F908F9008957C
:100EB00080959095A095B0954C015D018C209D206A
:100EC000AE20BF2089829A82AB82BC82DCCF0F9396
:100ED000CF93DF9300D000D0CDB7DEB7262F042FFD
:100EE00040918702509188026091890270918A0234
:100EF00049835A836B837C83482F69817A818B81F4
:100F00009C810E94F9060F900F900F900F90DF9137
:100F1000CF910F910C9426250E942D28811102C09B
:100F20000E94D1280E9491170E94E4170C94200A75
:100F30000E9403180C94230A08950C949C0781E0E6
:100F400008950C949F07CF93C82F0E949D078C2F64
:100F5000CF910C94A10708950E941F210E94AB0716
:100F60002FEF84E39CE0215080409040E1F700C0E7
:100F700000000C94F8290F931F93CF93DF93EC019B
:100F800061E00E94BE068C01BE010E948606882395
:100F900071F1BE01C8010E94EB16882341F1BE0128
:100FA000C8010E94FE18882311F1BE01C8010E94E9
:100FB00042198823E1F0BE01C8010E94151A882356
:100FC000B1F0BE01C8010E943D15882381F08A81DD
:100FD000882341F101308CE5180779F00E3D8CE54E
:100FE0001807E9F001151C45E9F40E94AC0780E000
:100FF000DF91CF911F910F91089590919C02892FBD
:101000008E7F90FF816080939C0280FF05C08EE9F7
:1010100092E00E947705EBCF8CE892E0FACF0E9435
:10102000D128E5CFCE01DF91CF911F910F910C9484
:10103000840690E080E008950895972F70E026E000
:10104000929F600D711D1124FB019CE3899FE00DAF
:10105000F11D1124EE0FFF1FE455FF4F8591949170
:101060000895FC01EE0FFF1FE155FD4F859194910E
:101070000895CF93DF930E941D080E944409EC015C
:10108000811521E5920708F048C0811530E59307E6
:1010900008F0AFC0803E910518F5803C910508F03E
:1010A00096C0883A910570F4853A910508F08CC095
:1010B0008130910531F10497813A910510F1D0E02A
:1010C000C0E01FC08F3B9105D1F3C85AD0E0CC0FD0
:1010D000DD1FC05DDE4F0990D881C02DD46411C0E2
:1010E000811540E3940788F4C11580E2D80708F021
:1010F00074C0C83ED10528F0CE019A9581159F4154
:10110000F0F6CE01DF91CF910895811530E4930779
:1011100008F466C0DF70D06AF4CF8115964560F59B
:10112000C11585E5D80708F096C0C11594E5D90723
:10113000F0F4C11523E5D20708F079C0C11532E5F6
:10114000D30708F46FC0CE018370992721E030E007
:1011500002C0220F331F8A95E2F7C695C69540E27A
:10116000C49FE0011124C22BD32BDC68CACFDC2F33
:10117000CC27C46FD06AC5CFC1158AE5D80788F4DB
:10118000C11599E5D90708F071C0CE0198558F3F78
:10119000910511F008F093CFDC2FCC27C06FD06AF7
:1011A000B0CFCE0190568115904208F088CF8D2F98
:1011B0008F710E94DC0990E0982F882788279F7103
:1011C0009C012C2BE90150C0A497D0649ACF805C7D
:1011D00091090E943108EC0194CFCE019F70F9CFA4
:1011E0009927D3FF03C0EC01D86C8BCFEC01D06CF6
:1011F00088CF74E0969587957A95E1F783702C2FC8
:1012000026952695237040E2249F90011124382BC7
:101210008C2F8370C1E0D0E002C0CC0FDD1F8A9517
:10122000E2F7A1CFDC2FCC27C16FD06A6ACFCE0105
:101230008370992721E030E002C0220F331F8A9586
:10124000E2F7C695C69580E2C89FE0011124C22B43
:10125000D32BDA6856CF8C2F0E94DC09C82FD0E040
:10126000DC2FCC27CC27DF71D0624BCF8C2F8F7037
:101270000E94DC0934E0D695C7953A95E1F7CF7026
:10128000DC2FC82FD0693DCF803E910599F1C8F47D
:101290008133910509F476C048F48932910509F447
:1012A0006AC08A32910509F474C0089589339105A2
:1012B000D1F082389105B9F08533910509F454C015
:1012C0000895843E910599F138F4823E9105F9F034
:1012D000833E910509F10895863E910599F1873E77
:1012E0009105B9F108952091F0022370A1F080EEEC
:1012F00090E008952091F00220FD52C03091F1025B
:1013000030FF09C024FF4FC090E080E004C020916E
:10131000F00222FDF7CF08952091F00222FD46C091
:101320003091F10230FDE3CF24FFF5CFEDCF2091D6
:10133000F10221FFF0CF8091F00284FDE5CF87EE2E
:1013400090E008952091F00223FFE5CF24FDDCCF4B
:10135000F6CF2091F00223FD2CC03091F10231FF35
:10136000E3CF84EE90E008952091F00225FFD3CFE3
:1013700089E290E008952091F00225FFCCCF85E32B
:1013800090E008952091F00226FFC5CF8AE290E018
:1013900008952091F00226FFBECF81E390E00895EA
:1013A00089E390E0089583EE90E0089582EE90E066
:1013B000089586EE90E008959091F00292FF06C0A5
:1013C000282F28712830F9F4877F846093FF06C0A6
:1013D000282F28712831F1F4877E84612091F10251
:1013E00020FF06C0382F38713830D9F4877F8160EC
:1013F00021FF06C0282F28712831D1F4877E816112
:1014000094FD877E0895282F24712430F9F68B7F70
:101410008860DCCF282F2471243101F78B7E88610E
:10142000DDCF382F3171313019F78E7F8860E0CFF2
:10143000282F2171213121F78E7E8861E1CF089517
:101440000C941F0A08950C94220AE82FF0E0EA5445
:10145000FD4F80810895CF92DF92EF92FF920F931C
:101460001F93CF93DF938EEB92E00E94770586EB7C
:10147000E82E82E0F82ED0E0C0E099EBC92E92E091
:10148000D92E01EB12E0DF93CF93DF92CF920E942F
:10149000100686EB92E00E947705F70181917F01AB
:1014A0000E9419281F928F931F930F930E9410067A
:1014B0008FEA92E00E94770521968DB79EB7089635
:1014C0000FB6F8949EBF0FBE8DBFCA30D105D9F6B6
:1014D000DF91CF911F910F91FF90EF90DF90CF9010
:1014E000089580EA8A95F1F7089508950E94E10B26
:1014F000809100018091000195E0811190E090932E
:10150000C10285E0891B8093C002A4E6B1E061E0DE
:1015100070E08D91E82FE295EF70F0E041A18F70BF
:101520009B0101C0220F8A95EAF7922F9095942390
:1015300091A382A1822B82A381E0A936B80749F743
:10154000AEE5B1E061E070E08D91E82FE295EF70DB
:10155000F0E041A18F709B0101C0220F8A95EAF74C
:10156000922F9095942391A382A1822B82A381E054
:10157000A436B80749F7ECEAF2E0A6EBB2E086EB56
:1015800092E011921D928E179F07D9F785E00E9475
:101590008A0B0E948C070C94F60B0E94C60B8823C2
:1015A000F9F08091C00290E08A549D4F0E94260C71
:1015B000811113C08091E2018F5F8093E201863038
:1015C00050F0E091C002F0E0EA54FD4F1082118229
:1015D0001282138214820C9498071092E201FBCFBE
:1015E0008091C10290E08A549D4F0E94530C0E944A
:1015F00003180C94750A5F926F927F928F929F925C
:10160000AF92BF92CF92DF92EF92FF920F931F9310
:10161000CF93DF938CEAE82E82E0F82E94E6892EB1
:1016200091E0992E712CAA24A394B12CD7015D903E
:101630007D01FD0112928F01D4018D914D01C82FC2
:10164000C295CF70D0E099A18F70650101C0CC0C1C
:101650008A95EAF7892F8C2989A38AA16C2C60943A
:1016600086218AA30E94710AEEE5F1E030E020E0D5
:101670004191A42FA295AF70B0E090968C91D801C3
:101680005C9190E04F7002C0959587954A95E2F77E
:1016900080FD3EC08A2D022E01C0880F0A94EAF711
:1016A000852BD8018C932F5F3F4F2630310501F7F2
:1016B00089A1682269A28AA1C82ACAA281E09C9154
:1016C000951101C080E0782AB1EBEB16B2E0FB0681
:1016D00009F0ACCF6091C10270E06A547D4F272DB4
:1016E00045E08CEA92E00E948B0B0E94CD0A872D88
:1016F000DF91CF911F910F91FF90EF90DF90CF90EE
:10170000BF90AF909F908F907F906F905F90089563
:1017100080E0C6CF0895FF920F931F93CF93DF937E
:10172000F82E092F162FD72FC42F222349F081E03E
:101730008093E5010E94B9299093E4018093E3012D
:101740008091E5018823A1F08091E3019091E4016B
:101750000E94C529069760F0EF2DF02FA12FBD2F15
:10176000CE0FDF2FD11DEC17FD0741F41092E501DC
:10177000DF91CF911F910F91FF90089581918D93EB
:10178000F2CF809888988FB1817008958091E6019A
:10179000811110C08091D80080618093D8008AE1C7
:1017A0008A95F1F700C09091D900917082E0891B71
:1017B0008093E60181E09091E601913009F080E0AC
:1017C00008950E94C10B809300018091000166E0A2
:1017D000882349F080E00E94040D0E94C60B8823F4
:1017E00021F00C94FD0B86E0F6CF08950E94C60B05
:1017F000811102C00C94030C089562E070E081E056
:1018000091E00C94A01A62E070E081E091E00C9409
:10181000A91A0E941912882361F080EF91E00E94BA
:101820001F1281E090E00E94821B892B11F40C941E
:101830001C1208958091EF01883039F460E080EF48
:1018400091E00E941D141092EF010895CF93DF9351
:10185000D82FC92F0E94090C90E080E00E94821BC3
:101860009C0180E021153105C9F4ED2FFC2FD90131
:10187000A751BE4F8C9181932F5F3F4F253031058B
:10188000B1F70E94AC15882361F00E94B0158093D7
:10189000E8018EEE91E00E945E1881E0DF91CF9129
:1018A000089580E0F4CFCF93DF93D82FC92F0E9403
:1018B0001A0CED2FFC2F90E080E02191DC01A75164
:1018C000BE4F2C93019685309105B9F78091E801C0
:1018D0000E9423178EEE91E0DF91CF910C94551862
:1018E000AF92BF92CF92DF92EF92FF920F931F932E
:1018F000CF93DF93362F472FE82FF0E0EC55F84FCA
:1019000071110EC06491762F862FDF91CF911F91B8
:101910000F91FF90EF90DF90CF90BF90AF90089520
:10192000C72FD0E0249186E0689F700111240FEF4B
:1019300010E0C701B8010E94DD31832F90E0880FCD
:10194000991F35E5369FF001379FF00D11248E1B4E
:101950009F0B982F990F980FF801EC1BFD0B2E9FF2
:10196000D0012F9FB00D1124EB2F949FA0011124C3
:10197000452F55276801C41AD50AA601249F600186
:10198000259FD00C11248D2D5801A91AB108AC9EA9
:10199000A001AD9E500DBC9E500D1124452F552722
:1019A000041B150B209FA001219F500D11246330B3
:1019B0007105D9F09CEFE91693E0F90668F46130FF
:1019C0007105B9F062307105C1F09FEFE916F104BD
:1019D00048F48B2FE52F06C06430710589F066301E
:1019E0007105B9F36E2F722F90CFED2D822F2B2F13
:1019F000F9CFE22F2D2D8B2FF5CF852FE22FF7CFAB
:101A0000822F252FEFCF0895E3E1F1E080836183FA
:101A10000895CF93DF93982F762F842FE901692FB4
:101A20000E94700C798368838A83DF91CF91089537
:101A30008091C202982F9E7F29F4817082608093EA
:101A4000C20208958A34E8F381708864F8CF88E090
:101A500090E00C945C320F931F93CF93DF938B0134
:101A6000D82FC92F0E94180DA8016D2F7C2F88E058
:101A700090E0DF91CF911F910F910C947A32CF9328
:101A8000DF9300D000D0CDB7DEB7E2ECF2E083E028
:101A9000808311828FEF828383831482A5E0B2E07A
:101AA00012968C911297836012968C93808191810B
:101AB000A281B38189839A83AB83BC83BC01CD01AE
:101AC0000F900F900F900F90DF91CF910C942B0DF2
:101AD00080919C0280FF76C085EF95E09F938F9365
:101AE0000E94100680919C020F900F9080FF6AC0A8
:101AF0008091C20281701F928F9388ED95E09F9331
:101B00008F930E94100680919C020F900F900F906F
:101B10000F9080FF57C08091C20286951F928F93CD
:101B20008DEB95E09F938F930E94100680919C020D
:101B30000F900F900F900F9080FF44C08091C302D0
:101B40001F928F9383EA95E09F938F930E941006D4
:101B500080919C020F900F900F900F9080FF32C0E9
:101B60008091C4021F928F9389E895E09F938F9391
:101B70000E94100680919C020F900F900F900F9082
:101B800080FF20C08091C5021F928F938FE695E061
:101B90009F938F930E94100680919C020F900F904C
:101BA0000F900F9080FF0EC08091C6021F928F93FE
:101BB00083E595E09F938F930E9410060F900F90FE
:101BC0000F900F9008958091C20280FF02C0869509
:101BD000089580E00895CF93DF9300D000D0CDB773
:101BE000DEB78091C602833018F48F5F8093C602FF
:101BF0008091C2029091C302A091C402B091C5022B
:101C000089839A83AB83BC83BC01CD010F900F9075
:101C10000F900F90DF91CF910C942B0DCF93DF930A
:101C200000D000D0CDB7DEB78091C602882319F06E
:101C300081508093C6028091C2029091C302A0910C
:101C4000C402B091C50289839A83AB83BC83BC0173
:101C5000CD010F900F900F900F90DF91CF910C94CA
:101C60002B0D70E00C94DF17609114018091C2027B
:101C700080FF0AC08091130123E0829FC0011124DC
:101C800089539D4F0C94310E80911501909116014E
:101C900023E0829FF0011124E953FD4F891750F78B
:101CA0001182108212828F5F3396F8CF9091C20218
:101CB00090FF14C0909115012091160133E0939F7D
:101CC000F0011124E953FD4F921710F00C94340EDB
:101CD0008183608342839F5F3396F6CF0895CF93CD
:101CE000DF9300D00F92CDB7DEB79091C20290FF84
:101CF0000AC09E012F5F3F4F0E94090D4B816981F1
:101D00008A810E94560E0F900F900F90DF91CF9115
:101D10000895CF93DF93EC01EC81F0E0E05EF94FA2
:101D20004491E2ECF2E0628181810E946F0E8C812D
:101D30008F5F8C83DF91CF910895CF93DF93EC0178
:101D4000E2ECF2E0438162818C810E946F0E8C8113
:101D50008F5F8C83DF91CF9108950F931F93CF9363
:101D6000DF9300D00F92CDB7DEB78C018091F801E0
:101D700081110AC09E012F5F3F4F4FEF6FEF0E940E
:101D8000090D8A818093F801F8016481613049F07E
:101D90006230F1F08091F80140E0662331F040E0DC
:101DA00019C06091F80140E080E00E94560EF801F1
:101DB000848190E0019663E070E00E94F1318483B9
:101DC0000F900F900F90DF91CF911F910F91089579
:101DD0004091F80180E060E0E8CF4F925F926F920F
:101DE0007F928F929F92AF92BF92CF92DF92EF92AB
:101DF000FF920F931F93CF93DF9300D000D000D0BA
:101E00000F92CDB7DEB7182FF62E042FE22E909149
:101E1000C20290FF5DC0E92FE695AE2FB0E0A25957
:101E2000BE4F8C91809305029E7F923009F067C06F
:101E30009E012F5F3F4F812F0E94090D4B816981C9
:101E40008A810E94560E8091C302811308C080913E
:101E5000C4028F1104C08091C502801729F08091BF
:101E600007028260809307021093C302F092C402BB
:101E70000093C502EE2009F4A2C08091C2029091A5
:101E8000C302A091C402B091C5028C839D83AE832E
:101E9000BF83BC01CD010E942B0D80919C0280FF6D
:101EA00017C08091C5021F928F938091C4021F9228
:101EB0008F938091C3021F928F938FE493E09F933F
:101EC0008F930E9410060FB6F894DEBF0FBECDBFF1
:101ED00027960FB6F894DEBF0FBECDBFDF91CF912E
:101EE0001F910F91FF90EF90DF90CF90BF90AF9038
:101EF0009F908F907F906F905F904F900895823069
:101F000019F40091C5029FCF863019F41091C302D5
:101F10009ACF8930D9F3893109F095CFE9518E2FC5
:101F20008170682E81E0762C7826E695F0E0E05E00
:101F3000F84FC590D490512CDD2494E7892E93E07E
:101F4000992E60911701561618F00E94340E7BCF1F
:101F5000A52CB12C5C9CC0015D9C900D112470E0FF
:101F60000E94DD31412E611028C0460E80919C02F6
:101F700080FF11C0DF92CF921F927F921F924F92EB
:101F80001F925F929F928F920E9410060FB6F89454
:101F9000DEBF0FBECDBF20911501A20EB11C950171
:101FA000220F331F2A0D3B1D29533D4F402F6F2D0C
:101FB000842D0E94090D5394C4CF461AD7CF809127
:101FC0009C0280FF85CF1F920F931F92FF921F925A
:101FD0001F9388E293E073CF282FE2ECF2E0818137
:101FE00043816281885F0C94ED0E81E00C94EC0FCC
:101FF000282FE2ECF2E081814381628188500C94C9
:10200000ED0E81E00C94F80F282FE2ECF2E06281F3
:1020100031E1630F08F46FEF438181810C94ED0E81
:1020200081E00C940410282FE2ECF2E0628131E1AF
:10203000631B08F460E0438181810C94ED0E81E024
:102040000C941310282FE2ECF2E0438131E1430FAE
:1020500008F44FEF628181810C94ED0E81E00C94C5
:102060002210282FE2ECF2E0438131E1431B08F417
:1020700040E0628181810C94ED0E81E00C9431107E
:1020800021E00C94ED0E20E00C94ED0EEF92FF9207
:102090001F93CF93DF93EC0110E0EE24EA94F12C30
:1020A00060911701161770F00E94340E9A818C818E
:1020B00090FF27C08F5F8C83DF91CF911F91FF909E
:1020C000EF90089520911501422F410F5527551F7C
:1020D000CA019A01220F331F280F391F29533D4F80
:1020E00070E0C7010E94F131962F8C814091C502AA
:1020F0006091C402199F800D11240E94090D1F5F79
:10210000CFCF8150D8CF9F92AF92BF92CF92DF9224
:10211000EF92FF920F931F93CF93DF93EC018A818D
:10212000BB24BA9480FD02C0BB24B3948C8181117E
:102130000AC081E0B81227C08091170181508093B6
:10214000FA0181E08C83A12C80911701A816F0F090
:102150000E94340E8091FA0191E0B91260C08111A1
:1021600059C08091170181508093FA011C82DF9140
:10217000CF911F910F91FF90EF90DF90CF90BF9084
:10218000AF909F9008951092FA01DBCF0091150156
:10219000CA2CD12C0C0D1D2D111DC801880F991FA3
:1021A000080F191F09531D4FF80111821082128266
:1021B00034E0E32EF12C912C8091FA01890D8D30C1
:1021C0001CF16CE00E94CF31892F082E000C990B76
:1021D000C816D90691F48091C5028E9DA0018F9DED
:1021E000500D112455954795559547959801609147
:1021F000C4028091C3020E94090D9B0CF1E0EF1A0A
:10220000F108D1F6A394A0CF87FFDFCF90911701FB
:10221000890FDBCF81508093FA01BC82A8CF90E078
:1022200001966091170170E00E94F1318093FA01EC
:102230008C839DCFEF92FF920F931F93CF93DF93E9
:10224000EC018C81811109C081E08C831092F9012D
:1022500092E0909312018093110180911501909169
:10226000160123E0829FF0011124E953FD4F8917E5
:1022700068F110E003E060911701161768F10E9401
:10228000340E809111012091F901280F2093F9015A
:1022900090911201980F90931201191654F4022E86
:1022A000000C330B409117014150550B2417350793
:1022B00034F0819580931101813009F41C82DF9103
:1022C000CF911F910F91FF90EF900895118210828E
:1022D00012828F5F3396CBCFE12EF12C70E0C701D5
:1022E0000E94F13120911501820F482F50E020917A
:1022F000F901022E000C330BE216F306BCF020911C
:102300001201022E000C330B2E153F057CF0809F2E
:102310009001112429533D4F4091C5026091C402A0
:102320008091C3020E94090D1F5FA5CFFA01EE0F35
:10233000FF1FE40FF51FE953FD4F11821082128237
:10234000F3CF0F931F93CF93DF938C01FC01848114
:10235000958101968170992795838483C0E0D5E5A6
:1023600080911701C81730F0DF91CF911F910F9125
:102370000C94340E20911501422F4C0F5527551FF8
:10238000CA019A01220F331F280F391F29533D4FCD
:102390008C2F8695F80144815581840F952F911DCE
:1023A00081704091C5026091C4028D9F802D1124DF
:1023B0000E94090DCF5FD4CF0F931F93CF93DF936C
:1023C000EC0110E000E0909117019017110609F060
:1023D0006CF40E94340E8C8190E0019681709927F4
:1023E0008C83DF91CF911F910F910895209115015A
:1023F000A801420F511D9A01220F331F240F351FD0
:1024000029533D4F4C816091C4028091C30296953F
:102410009017110651F04CF0442349F04091C50249
:102420000E94090D0F5F1F4FCECF4423B9F340E048
:10243000F7CF809107020895109207020895CF9375
:10244000DF93EC0185E0E2ECF2E0DE0101900D9219
:102450008A95E1F78091050290910602A09107020A
:102460008D839E83AF83DF91CF910895E5E0F2E005
:10247000118282818460828308956091C202669590
:1024800070E04BE050E088E191E00E944732892BF8
:1024900019F481E0809306020E94B9299093FF010C
:1024A0008093FE01809107028460809307028091EF
:1024B0009C0280FF08C08FE093E09F938F930E945F
:1024C00010060F900F900895109206028091070257
:1024D00084608093070280919C0280FF08C086EF91
:1024E00092E09F938F930E9410060F900F90089593
:1024F000CF93DF9300D000D0CDB7DEB79091C2026A
:1025000090FF66C0917081114DC092609093C2029D
:1025100080910702816080930702662309F449C015
:102520008091C2029091C302A091C402B091C502F1
:1025300089839A83AB83BC83BC01CD010E942B0DA0
:1025400080919C0280FF0FC08091C20286951F92ED
:102550008F9389E994E09F938F930E9410060F90C8
:102560000F900F900F906091C202669570E04BE063
:1025700050E088E191E00E944732892B31F10E94BE
:10258000641281E0809301024091C5026091C4020F
:102590008091C3020F900F900F900F90DF91CF9119
:1025A0000C944310853210F09864B0CF880F982BAC
:1025B000ADCF80919C0280FFD6CF8091C2028695DC
:1025C0001F928F938BE794E0C6CF0E943D12D9CF24
:1025D0000F900F900F900F90DF91CF910895682F7B
:1025E0008091C20286958F5F853208F081E00C945D
:1025F000781281E00C94EF12682F9091C2029695A8
:102600008FEF890F913009F484E20C94781281E005
:102610000C94FC1261E00C9478128091C2028160EB
:102620008093C20280919C0280FF0DC01F9281E0C6
:102630008F938DE094E09F938F930E9410060F90EC
:102640000F900F900F908091C20286950C940A1300
:1026500060E00C94781280910402811165C0809131
:102660009C0280FF14C08CE395E09F938F930E949F
:10267000100680919C020F900F9080FF08C086E2A8
:1026800095E09F938F930E9410060F900F900E94E9
:102690002D28811110C080919C0280FF08C08EEF10
:1026A00094E09F938F930E9410060F900F900E94CA
:1026B000D1280E943F0D0E94270D6093C2027093A3
:1026C000C3028093C4029093C50280910702836085
:1026D000809307026E7FC1F480919C0280FF08C046
:1026E00085EB94E09F938F930E9410060F900F90BC
:1026F0000E943F0D0E94270D6093C2027093C30297
:102700008093C4029093C5020E94180D0E94680D28
:102710000E9436128091C20280FF03C086950E94FB
:10272000281381E0809304020895CF93DF9300D0B3
:1027300000D0CDB7DEB78091C2028E7F8093C202F7
:102740008091C2029091C302A091C402B091C502CF
:1027500089839A83AB83BC83BC01CD010E942B0D7E
:1027600080919C0280FF0FC08091C20281701F92F5
:102770008F9385ED93E09F938F930E9410060F90A7
:102780000F900F900F900E94641280910702816059
:10279000809307029FEFA0E7B2E09150A040B040C5
:1027A000E1F700C000000F900F900F900F90DF91A5
:1027B000CF910C94340E80919C0280FF10C08091C8
:1027C000C202809581701F928F9384E494E09F935E
:1027D0008F930E9410060F900F900F900F90809192
:1027E000C20280FD0C9495130C940D138091C202CB
:1027F0008E7F8093C20280919C0280FF0CC01F924A
:102800001F928BE993E09F938F930E9410060F9085
:102810000F900F900F900E946412809107028160C8
:10282000809307022FEF80E792E021508040904094
:10283000E1F700C000000C94340E1F93CF93DF9398
:10284000EC01162F8F8180FF0CC0888180FF24C08F
:102850008091C20281608093C202888186950E9425
:1028600078128F8181FF06C0212F4B816A81898177
:102870000E94ED0E8F8182FF05C08E81882379F042
:102880000E943D128F8183FF03C081E0809301028B
:10289000DF91CF911F9108950E94F613E2CF0E941D
:1028A0006412F0CFEF92FF920F931F93CF93DF93B9
:1028B00080910602882309F475C080910502E09199
:1028C000C202E695E81BE0930002823009F071C075
:1028D000F0E0E45EF94FE491CE2FD0E009E81EE08D
:1028E00080910102882389F0109201020E94B92987
:1028F0009E0120953095280F391F3093FF012093BA
:10290000FE0110920302109202028091FE0190914A
:10291000FF010E94C5298C179D0708F443C08091D0
:10292000FD01882311F11092FD018091FB0190912E
:10293000FC010E94C52980339547B8F00E94B9294F
:102940009093FC018093FB0180919C0280FF08C062
:102950008DEC92E09F938F930E9410060F900F9042
:1029600080910702886080930702E0900202F09055
:102970000302E091FE01F091FF01CE0FDF1FD09323
:10298000FF01C093FE018EEF91E0F801099580915F
:10299000020290910302892B29F4EF2819F081E0BB
:1029A0008093FD01DF91CF911F910F91FF90EF90E8
:1029B0000895863049F4F0E0E75EF94FE491CE2FB8
:1029C000D0E00DE91EE08CCF893051F4E695F0E0BF
:1029D000EA5EF94FE491CE2FD0E006E410E180CF1B
:1029E0008F3051F4E695F0E0ED5EF94FE491CE2F93
:1029F000D0E003E810E174CF853149F4F0E0E05F06
:102A0000F94FE491CE2FD0E00AE111E169CFC8EE91
:102A1000D3E001EA11E1883109F462CF833239F45D
:102A2000EEE0F6E0C591D4910DEA1EE059CFC4EF77
:102A3000D1E00CED11E1843209F452CFC0EDD7E0C2
:102A400003E01DE04DCFFA0181110994FB01FDCF98
:102A5000CF93DF93C82FD62F0E94E30D8C1740F041
:102A60000E94E30D8D1720F4DF91CF910C94F912A1
:102A70008C2FDF91CF910C940A131F93CF93DF9388
:102A8000EC01FB011281111110C00E9462278272B9
:102A9000FE01E25CFC45E431F10508F05BC0E25662
:102AA000FD4C0C9427320E94DB13812FDF91CF91D4
:102AB0001F91089547E053E169EF72E10E942315E9
:102AC000F4CF49EF52E167E073E1F8CF41E050E124
:102AD00065EF7FE0F3CF45EF5FE061E070E1EECFBF
:102AE0004FE150E160E170E1E9CF40E150E16FE199
:102AF00070E1E4CF4DE350E16EE270E1DFCF4EE2F2
:102B000050E16DE370E1DACF4EE05EE06BEE7DE028
:102B1000D5CF4BEE5DE06EE07EE0D0CF81E00E944D
:102B20000A13C3CF65E082E00E942815BECF68E09B
:102B300086E0FACF6EE089E0F7CF64E18FE0F4CF72
:102B400067E185E1F1CF88E1EACF62E289E1ECCF8C
:102B500083E2E5CF11E0A9CF8091EB028170089567
:102B60008091EB0286958695869508950E942D2882
:102B7000811102C00E94D1280E9460288093EB023C
:102B8000803320F0877088628093EB029091EB0293
:102B9000892F817090FF04C0892F86958695869530
:102BA0000C9423178091EB02982F96959695969505
:102BB000883240F49F5F990F990F990F8770892B86
:102BC0008093EB028091EB0281608093EB020E9484
:102BD000642880919C0280FF11C08091EB02869551
:102BE000869586951F928F938CE897E09F938F939D
:102BF0000E9410060F900F900F900F908091EB02A3
:102C00008695869586950C9423178091EB02982FD4
:102C1000987F79F088508093EB02887F91E009F4E7
:102C200090E08091EB0290FB80F98093EB020E9490
:102C3000642880919C0280FF11C08091EB028695F0
:102C4000869586951F928F9384E797E09F938F9345
:102C50000E9410060F900F900F900F908091EB0242
:102C60008695869586950C9423178091EB0280FDBE
:102C70001FC081608093EB02813019F489E080935A
:102C8000EB028091EB020E94642880919C0280FFFD
:102C900008C08CE497E09F938F930E9410060F90DA
:102CA0000F908091EB028695869586950C9423175C
:102CB00008958091EB0280FF14C08E7F8093EB0219
:102CC0000E94642880919C0280FF08C089E397E0FD
:102CD0009F938F930E9410060F900F9080E00C94AA
:102CE00023170895CF93C091EB02C17080919C028D
:102CF00080FF0CC01F92CF938EE597E09F938F9338
:102D00000E9410060F900F900F900F90CC2319F097
:102D1000CF910C945916CF910C9435169091EB02EB
:102D2000892F8695869586958F5F8F7197708630EF
:102D300080F5880F880F880F892B8093EB02809194
:102D4000EB02887F91E009F490E08091EB0290FB28
:102D500080F98093EB020E94642880919C0280FF9E
:102D600011C08091EB028695869586951F928F9370
:102D700085E297E09F938F930E9410060F900F902B
:102D80000F900F908091EB028695869586950C9416
:102D900023179093EB02D3CF863008F085E0909113
:102DA000EB029770282F220F220F220F922B909365
:102DB000EB02987F21E009F420E09091EB0220FBE8
:102DC00090F99093EB020C9423170E94CC168091FB
:102DD000EB020C9464289C01FB018281882361F141
:102DE0002E3BFCE53F07F9F060F42C3BECE53E0799
:102DF000A9F02D3BFCE53F0799F02B3B3C4549F002
:102E000008952F3BECE53E0789F0203C3C4589F0D6
:102E1000089585E00E94E51680E0089580E0FACFED
:102E20000E940516F9CF0E94D215F6CF0E947216A5
:102E3000F3CF0E948E16F0CF81E00895269A2E9847
:102E400008952E980895CF93DF93CDB7DEB72897D6
:102E50000FB6F894DEBF0FBECDBF8983863060F514
:102E600081112CC0809180008F7D809380000E9412
:102E700021174981242F30E0AFEFBFEF0E942D32A0
:102E800025E030E040E050E00E940532C9012C37D7
:102E900064E13607C8F469E070E00E94DD317093A8
:102EA0008B0060938A0028960FB6F894DEBF0FBEA1
:102EB000CDBFDF91CF91089525E0298380918000D7
:102EC000806280938000D5CF2A50374D4F4F5F4F9F
:102ED000B42FA32F922F8827BC01CD0125EF38E214
:102EE00041E050E00E94053229833A834B835C83A2
:102EF000CA01B9010E94B3319B01AC0169817A8199
:102F00008B819C810E94B331BB27A92F982F872FDB
:102F1000BC010097A140B10511F66FEF7FEFBFCF65
:102F200008950E941E1782E28093800089E18093B9
:102F300081008FEF9FEF90938700809386000C9421
:102F4000B6159C01DB0180B3942F9F7061E070E0A7
:102F500001C0660F9A95EAF7862B80BB42954F70A9
:102F6000E42FF0E082A1462F4095482382A1682BF0
:102F70005FB7F894CD01880F991F8A0F9B1F820FAE
:102F8000931F8217930741F45FBF87EC90E001978E
:102F9000F1F700C000000895F90171919F01E8E088
:102FA00061BB000000C077FF41BB770F000000C08D
:102FB00000C000C041BB00C0EA9591F7E2CF47EFE7
:102FC0000C94A1170C946E0625982D9A27982F9A89
:102FD00083B185FB882780F923B130E0220F232FAE
:102FE000221F330B90E0232B09F092E0892B809372
:102FF0000D029091000181E0982790930902891BAE
:10300000809308020895CF93E0910D02EE0FEE0F2A
:10301000E0930D0283B185FB222720F983B190E074
:10302000880F892F881F990B009711F082E090E09C
:10303000822BE82BE0930D02C0910902EF70F0E0C3
:10304000ED56FE4F808190910C02890F80930C0207
:1030500084306CF0EC2F0C2E000CFF0BE65FFD4F64
:1030600080818F5F808360E08C2F0E94E2178091C7
:103070000C028D3F6CF4EC2F0C2E000CFF0BE65F66
:10308000FD4F80818150808361E08C2F0E94E21788
:1030900090910C02892F837897FF03C081508C6F29
:1030A0008F5F80930C02CF910895E0910902F0E0C8
:1030B000E65FFD4F2081FC0120830895FF920F936E
:1030C0001F93CF93DF93D09108020D2F10E0065F7E
:1030D0001D4FFC01C081F8018081C81BFC2E1F140C
:1030E00064F08C2FC7FD80E0C81BC11110C0DF91B8
:1030F000CF911F910F91FF900895FA94F80180816C
:103100008F5F808360E08D2F0E94E217E8CFCF5F52
:10311000F80180818150808361E08D2F0E94E21749
:10312000E4CF0F931F93CF93DF93C62FD42F022F9B
:10313000FC0182818823C9F0609310020E94B929A2
:1031400090930F0280930E0280E28C0F883008F07B
:1031500050C0C77081E001C0880FCA95EAF7DF91BF
:10316000CF911F910F910C94841E10911002161391
:1031700035C080910E0290910F020E94C529883CB3
:10318000910560F5C0E2CD0F1D17B9F080E2810F07
:10319000883040F4177081E001C0880F1A95EAF773
:1031A0000E948B1EC83048F481E09D2F977001C0AB
:1031B000880F9A95EAF70E94841E802F0E94711E44
:1031C000C830B8F4D77081E001C0880FDA95EAF70B
:1031D000DF91CF911F910F910C948B1E80E28C0F89
:1031E000883038F4C77081E001C0880FCA95EAF7CB
:1031F000EFCFDF91CF911F910F9108959C01CB01EB
:10320000233F4CE5340769F190F4283DFCE53F0786
:1032100021F1293D4CE5340781F1273D3C45B1F0D2
:10322000FC018281882361F1109210020895253FEC
:10323000FCE53F07D1F0263F4CE53407D1F0243FB1
:103240003C4571F727E245EE64EE03C026E241EE0D
:1032500061EE0E94911880E0089527E245EE65EE48
:10326000F8CF26E241EE60EEF4CF26E241EE62EEC8
:10327000F0CF27E245EE66EEECCF28E241E0EFCF5B
:1032800081E00895CF93DF93EC01FB0182818823D5
:1032900009F4C9C0C631FCE5DF07E0F4C2309CE5A3
:1032A000D907F0F00E9445289093F1028093F00234
:1032B000C631ECE5DE0720F5C230FCE5DF0798F407
:1032C0008091F0029091F1020E9453280E941F21E8
:1032D00080E006C09E012A5F3C452930310510F38D
:1032E000DF91CF910895FE01E350FC458091F002FB
:1032F0008160E331F10588F4EE54FD4C0C942732E3
:10330000CA5FDC45C930D105D8F6CB53DD4CFE0190
:103310000C9427328091F00282608093F002D0CF2B
:103320008091F0028460F9CF8091F0028860F5CF3F
:103330008091F10281608093F102C2CF8091F1020D
:103340008260F9CF8091F0028061E7CF8091F00236
:103350008062E3CF8091F0028064DFCF0E941F2162
:103360008091F0028068D9CF8091F0028C60D5CF37
:103370008091F1028360DFCF8091F0028E7FCDCF0C
:103380008091F0028D7FC9CF8091F0028B7FC5CFF5
:103390008091F002877FC1CF8091F1028E7FCBCFE9
:1033A0008091F1028D7FC7CF8091F0028F7EB5CFE3
:1033B0008091F0028F7DB1CF8091F0028F7BADCFF5
:1033C0000E941F218091F0028F77A7CF8091F00299
:1033D000837FA3CF8091F1028C7FADCF8091F002EB
:1033E00082FB992790F921E0922790FB82F990FBCC
:1033F00083F993CF8091F102982F909591708E7FF1
:10340000892B90FB81F997CF0E941F219091F002A8
:10341000892F97FB87F9805880CF81E00E94D328BD
:103420004FCF80E0FBCF81E05BCFCF93DF93EB0109
:1034300086319C4511F50E9462279A81992399F063
:103440008A7A91E009F490E090931102811109C009
:1034500089E20E943D270E94B12780E0DF91CF9151
:10346000089585E3F6CF80911102811104C089E2AD
:103470000E944427F0CF85E3FBCF81E0EFCF8EE1C0
:10348000489B02C08150E1F7489BFECF08955898B1
:1034900080E28A95F1F7589A0895FC013BE03A954D
:1034A000F1F720E090E080E031E040E14A95F1F76B
:1034B000880F489B02C08160232742E04A95F1F7BC
:1034C000000040E14A95F1F79F5F6913EECF90E16C
:1034D0009A95F1F799B132E03A95F1F7000040E1A1
:1034E0004A95F1F7917092272081920F9083089569
:1034F000EF92FF920F931F93CF93DF930F92CDB76D
:10350000DEB719828C017C01E60EF11C0E151F0539
:1035100061F481E09981911180E00F90DF91CF916A
:103520001F910F91FF90EF9008950E943F1A68E05D
:10353000CE0101960E944D1AF80181938F01E6CFCA
:10354000909314028093130260931202509A589A37
:10355000089590931402809313026093120250987E
:10356000589AE89AE9E6F0E080818C7F808308959C
:103570006150770B91E001C0990F6A95EAF720E05E
:1035800031E0911108C0222391F0589A80E28A9587
:10359000F1F758980895492F482339F0589A23276E
:1035A00040E24A95F1F79695ECCF5898F9CF5898A4
:1035B000EDCFFF920F931F93CF93DF93EC018C011C
:1035C000060F111DC017D10731F4DF91CF911F9164
:1035D0000F91FF900895F9900E94471A68E08F2D8F
:1035E0000E94B81AEFCF1F920F920FB60F921124BC
:1035F0000F931F932F933F934F935F936F937F93FB
:103600008F939F93AF93BF93EF93FF93CF93DF93EA
:103610000F92CDB7DEB719820E943F1A67E0CE0144
:1036200001960E944D1A082F069506950695982F2B
:1036300092959570202F2570920F292F23709695C3
:1036400096958770920F891344C08981811141C07A
:10365000809112028017E8F120E12A95F1F7589A3B
:10366000509A82E08A95F1F700C0A8E00A9FC00155
:1036700011240091130210911402080F191F589879
:10368000F8016581662321F0868197810E94D91A0D
:103690000E94471AF0E1FA95F1F758985098589A15
:1036A00020E12A95F1F7D80112966C9112976623C2
:1036B00031F113968D919C910E94781AD801ED9169
:1036C000FC91882311F088E001C082E080830E9491
:1036D0003F1A0F90DF91CF91FF91EF91BF91AF9182
:1036E0009F918F917F916F915F914F913F912F911A
:1036F0001F910F910F900FBE0F901F901895ED9195
:10370000FC91E1CF0F931F93CF93DF939C018091A6
:103710001202821713060CF471C0890183E0000FB6
:10372000111F8A95E1F7C0911302D0911402C00FC6
:10373000D11FF894509A589885E08A95F1F70000C7
:10374000922F969595702570920F892F837096957C
:103750009695980F092B0E94471A00C067E0802FAA
:103760000E94B81A80E18A95F1F75098589A489BC0
:1037700017C087E090E0489915C06D81662321F15C
:103780008E819F810E94781A81111EC0509A589A8A
:10379000E881F98182E08083789482E090E00DC036
:1037A00000C0E5CF019771F4509A589AE881F981E9
:1037B00081E08083789481E090E0DF91CF911F9148
:1037C0000F91089500C0D7CF0E943F1A80E28A95DA
:1037D000F1F75898509A80E18A95F1F76A8166234B
:1037E00021F08B819C810E94D91A0E94471AE8819E
:1037F000F9811082789490E080E0DFCF84E090E05F
:10380000DCCF90931A02809319020895E091190277
:10381000F0911A02309721F00190F081E02D099487
:1038200080E00895EF92FF920F931F93CF93DF9361
:103830008C01E0911902F0911A023097C1F10280D7
:10384000F381E02D099580919C0282FF30C080FFBA
:1038500004C08CEA98E00E947705D0E0C0E086EAD8
:10386000E82E88E0F82E80919C0280FF0EC0F801BF
:10387000EC0FFD1F80811F928F93FF92EF920E94A9
:1038800010060F900F900F900F902196C830D10521
:1038900051F780919C0280FF0AC084EA98E0DF9192
:1038A000CF911F910F91FF90EF900C947705DF91CE
:1038B000CF911F910F91FF90EF90089520911702E3
:1038C000309118022817390771F0909318028093ED
:1038D0001702E0911902F0911A02309721F0068048
:1038E000F781E02D09940895209115023091160278
:1038F0002817390771F09093160280931502E09112
:103900001902F0911A02309721F00084F185E02D20
:103910000994089585B7806885BF85B7806885BF9D
:103920000895089508950C94911C08950C94951C85
:103930000E948A1C0E94921C0C94931C0C94C60B2F
:103940000E94B0290E94760A0E941C2A0E94B61585
:103950000E942B130C94961CCF93C82F80919C022D
:1039600082FF1EC080FF1CC085EC98E00E94770596
:1039700080919C0280FF14C01F92CF9380EC98E04E
:103980009F938F930E94100680919C020F900F903E
:103990000F900F9080FF04C08EEB98E00E94770597
:1039A0008C2FCF910C94A307AF92BF92CF92DF924E
:1039B000EF92FF920F931F93CF93DF9300D000D02D
:1039C0000F92CDB7DEB70E94FB0A0E949E1C88238F
:1039D00009F460C08CE1A82E82E0B82E10E000E06F
:1039E000C02E802F0E94250AF82EF501D1905F018C
:1039F000D81609F449C080919C0281FD0E942B0ACF
:103A000080E0EE24E394DF249D2D9E21C1F1898383
:103A1000CA82FE2081E009F480E08B830E94B929EC
:103A20008160782F9D838C8349815A816B818D8140
:103A30000E946B1DF801E45EFD4F8081E826E08264
:103A40000E9452140E9490170E94061C90911B0223
:103A5000891789F10E94061C80931B020F900F901A
:103A60000F900F900F90DF91CF911F910F91FF90CA
:103A7000EF90DF90CF90BF90AF900C94AC1C8F5F15
:103A8000EE0C863009F0C0CF0F5F1F4F0A301105D2
:103A900009F0A6CF8FEF89838A831B820E94B92900
:103AA0008160782F9D838C8349815A816B818D81C0
:103AB0000E946B1DC5CF0F900F900F900F900F902D
:103AC000DF91CF911F910F91FF90EF90DF90CF90FA
:103AD000BF90AF900895CF93DF93CDB7DEB72B970C
:103AE0000FB6F894DEBF0FBECDBF4F8358876987EE
:103AF0007A878B871E8285E0FE013796DE0111965C
:103B000001900D928A95E1F749815A816B817C8100
:103B10008D819E812B960FB6F894DEBF0FBECDBF70
:103B2000DF91CF910C948223FC01808191810C94D0
:103B30000727CF93C82F882309F482C08238C1F4A5
:103B40000E94061C81FD7CC089E30E943D270E94E3
:103B5000B1272FEF31EE84E0215030408040E1F773
:103B600000C0000089E30E944427CF910C94B12744
:103B70008338A1F40E94061C80FD62C083E50E9488
:103B80003D270E94B1279FEF21EE34E09150204065
:103B90003040E1F700C0000083E5E5CF8438A1F4B0
:103BA0000E94061C82FD4CC087E40E943D270E94B3
:103BB000B1278FEF91EE24E0815090402040E1F753
:103BC00000C0000087E4CFCF8CEF8C0F813A90F4D7
:103BD0006C2F80912301909124010E94EA28882370
:103BE00029F08C2F0E9444270E94B1278C2F0E941D
:103BF0003D27BBCF80E28C0F883048F4C77081E04E
:103C000001C0880FCA95EAF70E946527AECF8BE501
:103C10008C0F833038F42C2F2452330BC901CF91F1
:103C20000C945E1CC85AC73158F4EC2FF0E0EE0F2C
:103C3000FF1FED55FE4F80819181CF910C94741C34
:103C4000CF910895882309F44BC0823871F40E9403
:103C5000061C81FF45C089E30E943D270E94B127D1
:103C600089E30E9444270C94B127833859F40E94B9
:103C7000061C80FF35C083E50E943D270E94B127C6
:103C800083E5EFCF843859F40E94061C82FF28C0D8
:103C900087E40E943D270E94B12787E4E2CF9CEF92
:103CA000980F913AF0F290E2980F983050F48770A4
:103CB00091E001C0990F8A95EAF7892F0E946B273E
:103CC000D2CF9BE5980F933020F490E080E00C94E5
:103CD0005E1C885A873120F490E080E00C94741CBC
:103CE0000895CF93C82F0E94991DC93349F42FEF2F
:103CF00087EE93E0215080409040E1F700C0000043
:103D00008C2FCF910C94221E882321F00E946527CE
:103D10000C94B1270895882321F00E946B270C94FE
:103D2000B1270895AF92BF92CF92DF92EF92FF92A8
:103D30000F931F93CF93DF9300D000D00F92CDB796
:103D4000DEB76C016D837983FC01058102950F70EC
:103D5000128111110E9484270E945B27E82E88237C
:103D600071F01123B1F08D81805E883090F082E097
:103D70000E94FC270E945B2791E0E82EE926A9809B
:103D8000A2949FE0A922B12CF501E253FD4C0C94C2
:103D90002732E12CF4CF09810F70F981F07F11F007
:103DA0000295007F1123B1F0002361F08D81805EC8
:103DB000883018F02D81211109C0802F0E946527BD
:103DC0000E94B1278D810E94991D15C0802F0E94ED
:103DD0007627F6CF8D810E94221E002361F08D810F
:103DE000805E883018F04D81411133C0802F0E94D1
:103DF0006B270E94B12758E0A51AB10864E0A61607
:103E0000B10420F40E94061C0E94A307EE2009F4CE
:103E1000C1C10E94572780FDBDC1F60112820E94D8
:103E200051270E945C25C6010E94F1200E94512763
:103E30000F900F900F900F900F90DF91CF911F91E7
:103E40000F91FF90EF90DF90CF90BF90AF900C94C8
:103E50008D25802F0E947C27CCCF59815F70F52E55
:103E60006981607F603219F0F29480EFF8227D81E1
:103E7000772369F0713049F1112391F1002351F159
:103E8000F601858180FF9ECF8F70858323C011232B
:103E900081F0011106C00E9498278F290E94841E7C
:103EA000AACF0130C1F70E9498278F290E949E2730
:103EB000A2CF011106C00E94A7278F2D0E948B1E42
:103EC0009ACF013009F497CFF6CF112329F00630AD
:103ED00008F091CF8F2DE2CF053008F08CCFEDCFD9
:103EE000002359F3FD81F93349F42FEF47EE53E0F6
:103EF000215040405040E1F700C000008D810E94F9
:103F0000221E79CF898186958695837069F08130EC
:103F100009F071CF8D8199819370111102C090E0E9
:103F200080E00E94741C67CF8D819981937011117C
:103F300002C090E080E00E945E1C5DCF89818370AA
:103F400009F050C0111157CF4D81429546954770E9
:103F5000440F440F8D818F7090E0B0E0A0E0042EFC
:103F600004C0880F991FAA1FBB1F0A94D2F76D8146
:103F700000E010E0980164FF0FC00FE010E020E0C7
:103F800030E004C0000F111F221F331F4A95D2F7E3
:103F9000009510952095309579817695769573707A
:103FA0007D83B901A801482B592B6A2B7B2B4983B0
:103FB0005A836B837C835D8169817A818B819C814B
:103FC000523051F0533059F0513019F00E94D22440
:103FD00012CF0E94AA240FCF0E94FA240CCF0E9475
:103FE000A82409CF8695112311F089818170882337
:103FF00009F401CF4D81429546954770440F440F17
:104000008D818F7090E0B0E0A0E0042E04C0880F96
:10401000991FAA1FBB1F0A94D2F76D8100E010E020
:10402000980164FF0FC00FE010E020E030E004C012
:10403000000F111F221F331F4A95D2F700951095CC
:104040002095309579817695769573707D83B90149
:10405000A801482B592B6A2B7B2B49835A836B83EE
:104060007C835D8169817A818B819C81523051F0A2
:10407000533059F0513019F00E941B26BCCE0E94DB
:10408000F325B9CE0E944326B6CE0E942625B3CE94
:1040900069816F706983112329F0862F0E945C2546
:1040A0008D81FCCE8D810E948B1E89810E948D2581
:1040B000A2CE7D81723FA1F160F4703FE1F0713FCB
:1040C00041F1112309F445C001117CCE89818F7122
:1040D00024C08D81833F49F1843F99F7112379F101
:1040E00099819F719983892F0E945C2563E0898162
:1040F0000E94E72780CE112341F0053008F07BCEE7
:1041000089818F710E94C22576CE063008F073CE69
:10411000F7CF89818F71112349F20E945C256BCE04
:1041200089818F711123C9F3C1CF112329F08981AE
:104130008F710E9437255FCE0E9432255CCE81E0D0
:104140000E94FC27023008F456CE82E00E94FC2731
:1041500052CE002361F0ED81E93309F0CFCEFFEFBD
:1041600027EE43E0F15020404040E1F7C5CE898181
:104170008F719CCF49814F706D81C6010E941908D3
:104180000E941C2438CE49814F706D81C6010E9467
:104190001C0831CE0F900F900F900F900F90DF9171
:1041A000CF911F910F91FF90EF90DF90CF90BF9034
:1041B000AF9008950F931F93CF93DF93EC01688125
:1041C00079818A810E9413278C010E946B260E94AC
:1041D000A724B801CE01DF91CF911F910F910C94CC
:1041E000921ECF93DF93EC018B819C81892B29F068
:1041F0008881998189238F3F19F4DF91CF910895A8
:10420000CE010E94BB078823C1F3CE010E94DA20B1
:10421000CE01DF91CF910C94C7060E9484270E94A3
:1042200095270E94B12790E080E00E945E1C90E0FC
:1042300080E00C94741C0E944B270C940D210E946A
:1042400073270C941B21282F892F82958F70903C07
:1042500080F48A30B0F4843020F4823090F480E02E
:1042600008958630E1F781E0283E88F0213FB9F7D4
:104270000EC08C3011F08F3091F793FB882780F9B6
:10428000089581E0203F39F018F4283E40F7089562
:10429000243F29F7FCCF08950E9407270C9423217F
:1042A000CF93DF9300D000D00F92CDB7DEB70F9041
:1042B0000F900F900F900F90DF91CF910895CF93B3
:1042C000DF9300D000D000D0CDB7DEB726960FB672
:1042D000F894DEBF0FBECDBFDF91CF9108951F933D
:1042E000CF93DF93E091270216E0809128028E138E
:1042F00004C0DF91CF911F910895CE2FD0E01E9F73
:10430000F0011124E75DFD4F40815181628173818D
:10431000848195810E945F21FE013196E770E5CF8F
:104320004091590250915A0260915B0270915C0277
:1043300080915D0290915E020C945F211F93CF9358
:10434000DF9380915E02807FA9F480915B028823D5
:1043500089F080912702C0912802609159027091E2
:104360005A02A0915C02B0915D02D62FD72316E0CD
:10437000C81304C0DF91CF911F91089590E010976A
:1043800011F0DF3F19F401968770F2CF189F90016A
:10439000199F300D1124F901E75DFD4F418147134D
:1043A000F2CF40814613EFCF42814111ECCF4381E0
:1043B00054814A1B5B0B483C510528F780915E02F3
:1043C0008F70806180935E02F901E25DFD4F808114
:1043D0008F708061808389E592E00E94F120DF91F7
:1043E000CF911F910C946F21AF92BF92CF92DF9229
:1043F000EF92FF920F931F93CF93DF93CDB7DEB76A
:104400002B970FB6F894DEBF0FBECDBF8C0185E0B1
:10441000F801DE01179601900D928A95E1F7F801F7
:1044200040815181E28089E5C82E82E0D82E6091DA
:104430005C0270915D026115710509F444C19091AF
:10444000590220915A02822F89238F3F09F43BC1E0
:10445000A380B480F0905B02F501E61BF70BFF2010
:1044600009F4E0C080915E02382F307FE83CF1050E
:1044700008F0B2C0311179C0FE2C251323C094136B
:1044800021C0E1101FC08F70806180935E020E9486
:104490009021C6010E94F12080915E02F80185837F
:1044A0008F2D2B960FB6F894DEBF0FBECDBFDF91D8
:1044B000CF911F910F91FF90EF90DF90CF90BF9021
:1044C000AF900895AB2829F0842F85238F3F09F002
:1044D00016C180E0F82FF170DF2EE09127022091C5
:1044E000280236E080FD1CC0EE20D1F280915E02F1
:1044F000816080935E02F12CD3CF8E2F90E03E9F9F
:10450000F0011124E75DFD4F6181651306C06081F4
:10451000641303C06281E612E7CFFC013196E770B5
:10452000E213EBCF4F8358878F8198850E9407272E
:10453000292F22952F70903260F0225F2F70223049
:1045400078F49F7051F0F8019581907F31F4D12C6F
:104550000AC09F7011F08823D1F3805E8830B8F3D1
:10456000C8010E94F120FD2C9BCF251306C0941397
:1045700004C0F801EE2009F470C04F8358878F8182
:1045800098850E944C21882319F1EE2009F1809131
:104590005E02803270F02091590230915A023A83C3
:1045A00029831B82BD82AC828E83CE0101960E943C
:1045B000F12086E0F801A9E5B2E001900D928A951C
:1045C000E1F70E949E210E949021FF24F39468CF7E
:1045D000C8010E94F120F9CF311113C07A2DBB869A
:1045E000AA866E2D8B850E94502189E592E00E945B
:1045F000F12086E0F60111928A95E9F70E94902158
:104600007ACF2513BACF9413B8CFE110B6CFF80103
:104610008583C8010E94F12086E0F60111928A95F7
:10462000E9F73ECFE83CF10508F040C0FE2CEE2053
:1046300079F225132AC0941328C080915E0280FD70
:104640001BC0982F907FC1F0F8018583903F31F017
:10465000982F907F905F8F70892B8583C8010E946F
:10466000F12086E0F801A9E5B2E001900D928A956B
:10467000E1F70E94902114CF86E0F801A9E5B2E0AD
:1046800001900D928A95E1F70BCF4F8358878F8168
:1046900098850E944C2181118CCF80915E028160AF
:1046A00080935E02C8010E94F120FACE7A2DBB866B
:1046B000AA866E2D8B850E94502186E0F60111920C
:1046C0008A95E9F7D6CFEE2009F482CF4F83588739
:1046D0008F8198850E944C21F82E882309F478CF89
:1046E00086E0F801A9E5B2E001900D928A95E1F724
:1046F00089E592E00E94941D0E949E21BACF81E03C
:104700008E25E8CE1F93CF93DF93CDB7DEB72C97DE
:104710000FB6F894DEBF0FBECDBF4F8358876987B1
:104720007A878B879C87CE0107960E94F421882385
:1047300069F08A859B85892B39F04F815885842FB4
:1047400085238F3F09F071C016E05FC086E0FE014F
:104750003796DE01119601900D928A95E1F78A85D0
:104760009B85892B89F388859F8189238F3F61F3FE
:104770002091280230E0C901019687709927409165
:1047800027024817190671F40E941F21109228026F
:104790001092270286E0E9E5F2E0DF011D928A959A
:1047A000E9F7D2CF96E0929FD001939FB00D1124EC
:1047B000A75DBD4FFE01319601900D929A95E1F7EC
:1047C000809328020E946F21BFCF819FC0011124D6
:1047D000875D9D4F0E94F4218823E9F0E091270234
:1047E0001E9FF0011124E75DFD4F408151816281E0
:1047F0007381848195810E945F218091270290E0DE
:1048000001968770992780932702809127029091C3
:1048100028028913DACF2C960FB6F894DEBF0FBEAC
:10482000CDBFDF91CF911F91089569857A858B85E2
:104830009C850E945F2188CFEF92FF920F931F9378
:10484000CF93DF938C01892B89F0F12CEE24E39434
:10485000E8012196F8018491843709F457C0A0F447
:10486000823009F43EC048F48130D1F0DF91CF911D
:104870001F910F91FF90EF9008959CEF980F903744
:10488000A8F70E94991D0AC0853709F44CC09CE71F
:10489000980F903758F78F770E94221E8E0116C00E
:1048A0000E5F1F4FFE01849190E2980F983060F4E4
:1048B0008770FE2D01C0FF0F8A95EAF78F2F0E94A7
:1048C00087270E94B12702C00E94991D8F2D815019
:1048D00008F4BECFEFE9FFE03197F1F700C0000028
:1048E000F6CF0E5F1F4FFE01849190E2980F983033
:1048F00050F48770FE2D01C0FF0F8A95EAF78F2FC5
:104900000E948D27DECF0E94221EE0CF0E5F1F4F38
:10491000FE01C491C150D0F28FE99FE00197F1F7F9
:1049200000C00000F7CF0E5F1F4FFE01F490CECF06
:1049300008950C9498240E94992460938B0270939C
:104940008C0280938D0290938E020C940D21089519
:104950000C949B24CF93DF9300D000D0CDB7DEB76B
:1049600069837A838B839C8380918B0290918C02E4
:10497000A0918D02B0918E0229813A814B815C8198
:10498000282B392B4A2B5B2B29833A834B835C835F
:10499000CA01B9010F900F900F900F90DF91CF9146
:1049A0000C949B24CF93DF9300D000D0CDB7DEB71B
:1049B00069837A838B839C8380918B0290918C0294
:1049C000A0918D02B0918E0229813A814B815C8148
:1049D000282339234A235B2329833A834B835C832F
:1049E000CA01B9010F900F900F900F90DF91CF91F6
:1049F0000C949B24CF93DF9300D000D0CDB7DEB7CB
:104A000069837A838B839C8380918B0290918C0243
:104A1000A0918D02B0918E0229813A814B815C81F7
:104A2000282739274A275B2729833A834B835C83CE
:104A3000CA01B9010F900F900F900F90DF91CF91A5
:104A40000C949B240C9498240C9422250E942425D9
:104A500060938702709388028093890290938A0200
:104A60000C940D2160E070E0CB010C9426250F938F
:104A70001F93CF93DF9300D000D0CDB7DEB741E0D6
:104A800050E060E070E08A019B0104C0000F111F3C
:104A9000221F331F8A95D2F709831A832B833C8305
:104AA000C901B8010F900F900F900F90DF91CF9137
:104AB0001F910F910C9426250F931F93CF93DF9393
:104AC00000D000D0CDB7DEB741E050E060E070E04C
:104AD00004C0440F551F661F771F8A95D2F7809137
:104AE000870290918802A0918902B0918A028A017E
:104AF0009B01082B192B2A2B3B2B09831A832B8311
:104B00003C83C901B8010F900F900F900F90DF9177
:104B1000CF911F910F910C9426250F931F93CF9344
:104B2000DF9300D000D0CDB7DEB741E050E060E0C9
:104B300070E004C0440F551F661F771F8A95D2F797
:104B4000409550956095709580918702909188026C
:104B5000A0918902B0918A028A019B01082319233E
:104B60002A233B2309831A832B833C83C901B80181
:104B70000F900F900F900F90DF91CF911F910F9199
:104B80000C9426250F931F93CF93DF9300D000D072
:104B9000CDB7DEB741E050E060E070E004C0440F04
:104BA000551F661F771F8A95D2F7809187029091D3
:104BB0008802A0918902B0918A028A019B0108278C
:104BC00019272A273B2709831A832B833C83C90192
:104BD000B8010F900F900F900F90DF91CF911F9120
:104BE0000F910C942625CF93DF9300D000D0CDB742
:104BF000DEB769837A838B839C838091870290914F
:104C00008802A0918902B0918A0229813A814B8160
:104C10005C81282B392B4A2B5B2B29833A834B83CE
:104C20005C83CA01B9010F900F900F900F90DF9134
:104C3000CF910C942625CF93DF9300D000D0CDB731
:104C4000DEB769837A838B839C83809187029091FE
:104C50008802A0918902B0918A0229813A814B8110
:104C60005C81282339234A235B2329833A834B839E
:104C70005C83CA01B9010F900F900F900F90DF91E4
:104C8000CF910C942625CF93DF9300D000D0CDB7E1
:104C9000DEB769837A838B839C83809187029091AE
:104CA0008802A0918902B0918A0229813A814B81C0
:104CB0005C81282739274A275B2729833A834B833E
:104CC0005C83CA01B9010F900F900F900F90DF9194
:104CD000CF910C9426250895292F220FE22FE90F5A
:104CE000EE0FE80F8E2F877041E001C0440F8A95C8
:104CF000EAF7E695E695E69585E0E89FF001112450
:104D0000E15AFD4F30E020E070E05191DF01119752
:104D1000CB01022E02C0969587950A94E2F7817026
:104D200081958527842385278C932F5F3F4F2530DE
:104D3000310559F70895292F220FE22FE90FEE0FC1
:104D4000E80F9E2F9770E695E695E69585E0E89F3B
:104D5000F0011124E15AFD4F50E040E080E0219144
:104D600030E0092E02C0369527950A94E2F72170AB
:104D70003327042E01C0220F0A94EAF7822B4F5FDB
:104D80005F4F4530510559F70895BF92CF92DF929A
:104D9000EF92FF920F931F93CF93DF938C01C090FC
:104DA0008702D0908802E0908902F0908A02809178
:104DB0008B0290918C02A0918D02B0918E02C82A34
:104DC000D92AEA2AFB2ACFE1D0E0BC2ED701C601BE
:104DD0000C2E04C0B695A795979587950A94D2F79F
:104DE00080FD0EC0219788F7B12C8B2DDF91CF91DC
:104DF0001F910F91FF90EF90DF90CF90BF9008959B
:104E0000B8018C2F0E943908019761F3EECFCF9340
:104E1000DF93D82FC92F0E94C5266D2F7C2FDF91DD
:104E2000CF910C9439081F93CF93DF93162FD72F70
:104E300090912602992339F0862F972FDF91CF91F9
:104E40001F910C940727882391F0862F972F0E949B
:104E5000C526C82F682F812F9D2F0E946C26612F99
:104E60007D2F8C2FDF91CF911F910C943908862FC5
:104E7000972F0E949B26C82FF2CF682F8091230185
:104E8000909124010C942429682F80912301909102
:104E900024010C94262980912301909124010C94E3
:104EA000282980918F028595859585950895809113
:104EB0008F028770089590918F02977081E009F4B6
:104EC00080E0089580919B02089590919B02982B19
:104ED00090939B020895982F909580919B0289232F
:104EE00080939B02089510929B02089590919A02DC
:104EF000982B90939A020895982F909580919A02FA
:104F0000892380939A02089510929A0208959091AD
:104F10009902982B909399020895982F90958091DB
:104F20009902892380939902089510929902089515
:104F300080919002089508950C949B27909190027F
:104F4000981721F0809390020C949C2708958091EB
:104F50009002882329F01092900280E00C949C2704
:104F60000895E0912301F091240180919B028083B8
:104F7000E0912301F0912401808190919A02892B84
:104F80008083E0912301F091240180819091990226
:104F9000892B808390919002992381F0E0912301E5
:104FA000F09124018081892B80838091230190914D
:104FB00024010E94D82881110E94A72780912301F3
:104FC000909124010C94121C08950C94E42798E00D
:104FD000899F90011124622B60938F020E945C25AF
:104FE00080918F028595859585950C94E527109283
:104FF0008F0280E00C94E52790918F0280958923A1
:1050000080938F02282F277071F4282F082E000C10
:10501000330B9217130639F08595859585950E9477
:105020008D250C94F72708959093E1018093E0017A
:105030000895829594E0899F900111242C7C869597
:1050400086958373282B30E0C901880F991F8A7ACF
:10505000359527952575822B089590E080E00E9474
:1050600062329C0181E02C3E3E4F09F080E00895C1
:1050700082E090E00C94543283E090E00C9454323F
:10508000682F83E090E00C946832CF9384E090E046
:105090000E945432C82F81E290E00E945432982F2F
:1050A0008C2FCF910895CF93682FC92F84E090E083
:1050B0000E9468326C2F81E290E0CF910C946832AC
:1050C00086E090E00C945432682F86E090E00C94D7
:1050D0006832AB01BC018FE090E00C947A32AB01F6
:1050E000BC0183E190E00C947A3260E070E0CB0187
:1050F0000C946F286CEE7EEF90E080E00E94863288
:1051000060E082E090E00E94683260E083E090E03E
:105110000E94683210928B0210928C0210928D02C3
:1051200010928E0260E084E090E00E94683260E0BD
:1051300081E290E00E94683260E085E090E00E94A9
:10514000683260E086E090E00E9468326FEF87E0AE
:1051500090E00E94683240E050E0BA0188E090E0C0
:105160000E947A3260E08DE090E00E94683240E078
:1051700050E0BA0188E190E00E947A3260E087E175
:1051800090E00E94683240E050E0BA018CE190E08B
:105190000E947A3260E080E290E00E9468320C94D3
:1051A00019060C947A28682F8EE090E00C946832EF
:1051B000AC019C012E5F3F4F485F5F4F80E024179A
:1051C000350709F40895F90191919F019923B9F3E5
:1051D0008F5FF5CF9C01662351F0FC013296285F6A
:1051E0003F4F8191861729F0E217F307D1F780E04E
:1051F000089581E008959C01FC0132968FEF90E0C4
:105200004191461751F08F3F19F4411101C0892F88
:105210009F5F9630A9F78F3F09F40895280F311D3D
:1052200087FD3A95F901628308959C01FC0132964D
:10523000285F3F4F8191861303C0DF0111971C92B5
:10524000E217F307B9F708950C94FB280C9415297D
:10525000FC01329686E0DF011D928A95E9F70895F8
:10526000089508950C9431290E9432298091F60204
:10527000843061F110929D0288E190E020E40FB645
:10528000F894A895809360000FBE2093600080E0A2
:105290000E94231780E00E94A3070E94322983B74F
:1052A000817F846083BF83B7816083BF7894889552
:1052B00083B78E7F83BF0FB6F894A8958091600066
:1052C000886180936000109260000FBE0895089579
:1052D000CF930E9430290E94FB0A0E946729C0E0F8
:1052E0008C2F0E94250A811105C0CF5FCA30C1F7FB
:1052F000CF91089581E0FCCF08950C947C290E9401
:105300001F210E94B6150E94061C0E94A3070C9440
:105310007D291F921FB61F9211248F939F93AF93E5
:10532000BF9380919D02811113C08091EC029091F6
:10533000ED02A091EE02B091EF024196A11DB11DC8
:105340008093EC029093ED02A093EE02B093EF02F3
:10535000BF91AF919F918F911F901FBE1F90189585
:1053600082E084BD93E095BD9AEF97BD80936E0077
:1053700008952FB7F8948091EC029091ED02A091DE
:10538000EE02B091EF022FBF08959C014FB7F89441
:105390008091EC029091ED02A091EE02B091EF02AB
:1053A0004FBF821B930B089578941F921FB61F92D4
:1053B00011248F939F93AF93BF938091EC029091B0
:1053C000ED02A091EE02B091EF020196A11DB11D78
:1053D0008093EC029093ED02A093EE02B093EF0263
:1053E000BF91AF919F918F911F901FBE1F901895F5
:1053F00081E08093E00080E28093D8001092C900A1
:105400008FE19EE40197F1F700C0000087E090EB88
:10541000DC018093FF0290930003A0930103B093FB
:10542000020388E19CE00FB6F894A8958093600091
:105430000FBE90936000FFCFCF93DF9300D000D0DA
:10544000CDB7DEB70E942D28811102C00E94D1285D
:105450000E94382880939C020E9445289093F10274
:105460008093F0020E943C28282F30E050E040E07A
:1054700029833A834B835C83CA01B9010F900F9053
:105480000F900F90DF91CF910C94A8248091A902E6
:10549000089508959FB7F8941092A0029FBF90912D
:1054A000F602943009F048C02091E9002F70309145
:1054B000EC00932F917030FD90E8922B23E0209325
:1054C000E9002091EB0020FF34C02091EE0027FF7F
:1054D00030C020919E02222321F02091E80025FF78
:1054E00028C010929E0226E03091E80035FF14C0DB
:1054F0008093F1008091E80085FD27C08091E8004D
:1055000080FFFCCF8091E8008E778093E8009F7049
:105510009093E90080E008953091F602343049F428
:105520003091EB0035FD05C0215041F481E08093BE
:105530009E029F709093E9008FEF0895EFE9FFE0DE
:105540003197F1F700C00000CFCF8FB7F89421E07A
:105550002093A0028FBFDBCFCF93DF9300D00F92B9
:10556000CDB7DEB79091F602943019F589836A833E
:105570007B8382E08093E9008FEF9091E800815077
:1055800095FD06C095ED9A95F1F700008111F5CFD4
:105590008091E80085FF0DC050E040E063E070E0DE
:1055A000CE0101960E942C2D8091E8008E77809389
:1055B000E8000F900F900F90DF91CF910895CF9357
:1055C000DF93D82FC92F0E940F2D823011F0843025
:1055D00039F46D2F7C2F84E0DF91CF910C94AC2AAD
:1055E000DF91CF910895BC0183E00C94AC2ACF9356
:1055F000DF93D82FC92F0E940F2D823011F08430F5
:1056000049F581E08093E9008FEF9091E8008150A7
:1056100095FD06C095ED9A95F1F700008111F5CF43
:105620008091E80085FF16C050E040E068E070E03F
:105630008D2F9C2F0E942C2D8091E8008E778093D7
:10564000E80088E0ED2FFC2FA1EAB2E001900D9276
:105650008A95E1F7DF91CF9108958DEF98E00E9450
:1056600077058091F502811109C00E94B42E0E9435
:10567000112F8091E20084608093E200089589EF09
:1056800098E00E9477051092F502089585EF98E062
:105690000C94770581EF98E00C9477058DEE98E0F7
:1056A0000E9477050C947F2920919F022F5F822F03
:1056B00062E30E94C331992319F020939F02089559
:1056C00010929F028091A0028823F1F08091F6024F
:1056D0008430C1F49091E9009F702091EC00822FFA
:1056E000817020FD80E8892B93E09093E9009091F0
:1056F000EB0090FF04C09091EE0097FD08C08F7002
:105700008093E9001092A00208951092F100909108
:10571000E80095FDFACF9091E80090FFF0CF9091CE
:10572000E8009E779093E800EACF42E061EC81E0E8
:105730000E94302E42E261EC82E00E94302E42E272
:1057400061EC83E00C94302E8091F802893089F16D
:1057500048F4823009F49DC0833009F458C0813088
:1057600041F008958A3009F484C08B3009F46AC08E
:1057700008958091F702813A09F048C08091E800CD
:10578000877F8093E8008091FB029091FC02892B37
:1057900061F468E081EA92E070E00E947B2D8091E4
:1057A000E8008B778093E800089560E090E080E067
:1057B000F3CF8091F702813249F58091FB029091FD
:1057C000FC02029718F58091E800877F8093E8003B
:1057D0008091E80082FF16C09091F3008091F20062
:1057E000029729F48091F1008B7F813021F4809120
:1057F000F1008093A9028091E8008B778093E80004
:105800000C94642E8091F6028111E2CF089580916C
:10581000F702813AD9F78091FB029091FC02892B23
:10582000A9F78091E800877F8093E8008091E800E5
:1058300080FFFCCF80912F018093F1008091E800E0
:105840008E77DCCF8091F702813201F78091FB02E5
:105850009091FC02892BD1F68091E800877F80939C
:10586000E8000E94642E8091F90280932F010C942D
:105870001F218091F702813249F68091E800877FED
:105880008093E8000E94642E8091FA028093AA021D
:1058900008958091F702813A09F0B8CF8091E8002D
:1058A000877F8093E8008091E80080FFFCCF8091A3
:1058B000AA02C2CF84B7877F84BF0FB6F894A89599
:1058C00080916000886180936000109260000FBE3C
:1058D00080E890E00FB6F8948093610090936100A7
:1058E0000FBE0E94981C0E94B42E0E94112F80911E
:1058F000E20084608093E2008AE49AE20E94142825
:1059000078940E9498310E94A01C85E291E00E9448
:10591000011C8CED98E00E9477058091F60285309D
:1059200019F00E94D41CF9CF88ED98E00E94770509
:105930000E9434298091F402882379F30E94682917
:10594000882359F30E94162DE8CF0C94A72CFC0154
:10595000CB01DA012F2F332723303105D1F070F43A
:105960002130310509F44EC02230310569F48BE550
:1059700090E023E439E02D933C93089521323105E2
:1059800021F12232310571F190E080E030E020E039
:10599000F2CFCF019927E230A9F08330910550F47E
:1059A000009769F0EFE2F9E0019771F7849190E0D8
:1059B0009F01E1CFE1E0F9E00397C1F3E5CFEFE329
:1059C000F9E0F4CFE7E0F9E0F1CF63307105E0F6FC
:1059D000880F991FFC01E652FE4F2081318189E03A
:1059E00090E0C9CF6330710578F6FB01EE0FFF1F21
:1059F000EC52FE4F208131818F529E4FFC018081FD
:105A000090E0B9CF82E190E02EE939E0B4CF809107
:105A1000F602843011F482E0089581E008958091C7
:105A2000AB02811102C00C94072D089580E189BD5D
:105A300082E189BD09B400FEFDCF8091D8008F7D41
:105A40008093D8008091E00082608093E000809194
:105A5000E00081FDFCCF0895AF92BF92CF92DF921C
:105A6000FF920F931F93CF93DF936C01EB018A0199
:105A70000E94832EF82E811123C00115110539F0E3
:105A8000F80180819181C81BD90BC80ED91EB12C99
:105A9000A12C2097A9F08091E80085FD22C080917B
:105AA000E8008E778093E80001151105A1F0F80158
:105AB00080819181A80EB91EB182A08285E0F82E66
:105AC0008F2DDF91CF911F910F91FF90DF90CF909D
:105AD000BF90AF9008950E94832E8823D1F2F82EB4
